S00F0000506F73746C61622E7372656340
S11300000C9434000C9451000C9451000C94510045
S11300100C9451000C9451000C9451000C94510018
S11300200C9451000C9451000C9451000C94510008
S11300300C9451000C9451000C9451000C945100F8
S11300400C9451000C9451000C9490000C945100A9
S11300500C9451000C9455010C9451000C945100D3
S11300600C9451000C94510011241FBECFEFD8E022
S1130070DEBFCDBF11E0A0E0B1E0E4E2F3E002C0F6
S113008005900D92A038B107D9F721E0A0E8B1E0BE
S113009001C01D92A438B207E1F70E9432010C940A
S11300A090010C9400008AB18E7F8AB98AB1826073
S11300B08AB9E0ECF0E01082808182608083E1EC18
S11300C0F0E01082808188698083E2ECF0E01082A5
S11300D08081866080838FEC90E09093C50080934C
S11300E0C4000895AC0120E007C09091C00095FFC2
S11300F0FCCF3093C6002F5FFA01E20FF11D30816F
S11301003111F3CF089580E091E00E94720084E100
S113011091E00E9472008BE291E00E9472000895C7
S11301201F920F920FB60F9211242F933F934F9368
S11301305F936F937F938F939F93AF93BF93EF934B
S1130140FF93CF93DF931F92CDB7DEB78091C600A4
S1130150809383018091C00085FFFCCF809183014F
S11301608983CE0101960E946A0180938101909156
S11301708001913091F1813019F0823099F02AC0D8
S113018081E080938201809183018093C6008CE397
S113019091E00E94720081E591E00E9472000E9449
S11301A083002EC01092820181E0809380018091AF
S11301B083018093C6008CE391E00E94720084E581
S11301C091E00E94720081E591E00E9472001BB8E8
S11301D015B816C01092820113C01092800180914C
S11301E083018093C600809183018BB98091830140
S11301F0837085B989E691E00E9472000E948300B1
S11302000F90DF91CF91FF91EF91BF91AF919F91AB
S11302108F917F916F915F914F913F912F910F90AB
S11302200FBE0F901F901895ECE7F0E010828081CC
S11302308064808380818F778083808180628083E3
S1130240EAE7F0E0108280818068808380818860A2
S11302508083808187608083EEE7F0E08081816025
S113026080830895F8948CEF8AB983E084B987B1C8
S11302708E7F87B90E9453000E94140178940E94D3
S1130280830080918201813069F4EAE7F0E08081A3
S113029080648083E9E7F0E080818BB9808183709A
S11302A085B9EFCF10928201ECCF1F920F920FB657
S11302B00F9211248F93EF93FF93EAE7F0E080818C
S11302C080618083FF91EF918F910F900FBE0F900B
S11302D01F901895FC0188279927E89421912032D2
S11302E0E9F3293010F02E30C8F32B3241F02D32CF
S11302F039F4689404C00E948801820F911D2191F1
S113030020532A30C0F31EF4909581959F4F089591
S11303107AE0979F902D879F802D910D1124089549
S1070320F894FFCF7B
S11303240A0A0A2020202A2A2A204D454E55202A2A
S11303342A2A0A00312E204C65657220706F746578
S11303446E6369F36D6574726F0A00322E20456E14
S1130354766961722041534349490A00202D3E20A5
S1130364436172616374657220656E766961646F5A
S1130374000A0A00456E76696520756E2063617211
S113038461637465722E2E2E00202D3E204361720B
S11303946163746572206D6F73747261646F0000BD
S9030000FC
